:100000000C9434000C9449000C9449000C94490061
:100010000C9449000C9449000C9449000C9449003C
:100020000C9449000C9449000C9449000C9449002C
:100030000C9449000C9449000C9449000C9449001C
:100040000C9449000C9449000C9449000C9449000C
:100050000C9449000C9449000C9449000C944900FC
:100060000C9449000C94490011241FBECFEFD8E036
:10007000DEBFCDBF11E0A0E0B1E0E2E1F2E002C0FE
:1000800005900D92A030B107D9F70E94A0000C9402
:1000900007010C9400000E94CD00089520E030E09C
:1000A00048C080FF02C098E098B9E7ECF0E03197D3
:1000B000F1F700C0000081FF02C09CE098B9E7ECB6
:1000C000F0E03197F1F700C0000082FF02C09AE033
:1000D00098B9E7ECF0E03197F1F700C0000083FF3A
:1000E00002C09EE098B9E7ECF0E03197F1F700C06C
:1000F000000084FF02C099E098B9E7ECF0E0319786
:10010000F1F700C0000085FF02C09DE098B9E7EC60
:10011000F0E03197F1F700C0000086FF02C09BE0DD
:1001200098B9E7ECF0E03197F1F700C000002F5FDD
:100130003F4F203BF4E03F070CF4B3CF18B80895CD
:100140000E944B008FE087B98FE390E00E944E0041
:1001500086E090E00E944E008BE590E00E944E0009
:100160008FE490E00E944E0086E690E00E944E00F0
:100170008DE690E00E944E008DE790E00E944E00D8
:1001800087E090E00E944E008FE790E00E944E00D2
:100190008FE690E00E944E00D7CF8FEE80936400F0
:1001A00084B114B885B19FEF95B987B1807887B9CC
:1001B00088B18F6788B98AB11AB88BB19BB984B1FD
:1001C000806284B985B18F7D85B98AB181608AB931
:1001D0008BB18E7F8BB98AB182608AB98BB18D7FEA
:1001E0008BB98AB184608AB98BB18B7F8BB940E0BF
:1001F00060E881E690E00E94000113BE15BE0895FC
:100200002FB7F894FC01608340832FBF0895F894C2
:02021000FFCF1E
:00000001FF
